:020000040800F2
:1000000070040020A9010008A1060008BB03000835
:100010009D0600081D020008D90C00080000000021
:10002000000000000000000000000000A50800081B
:10003000210200080000000059070008A10900087B
:10004000C3010008C3010008C3010008C301000880
:10005000C3010008C3010008C3010008C301000870
:10006000C3010008C3010008C3010008C301000860
:10007000C3010008C3010008C3010008C301000850
:10008000C3010008C3010008C3010008000000000C
:10009000000000000000000000000000C301000894
:1000A000C3010008C3010008C3010008C301000820
:1000B000C3010008210A0008C3010008C3010008A9
:1000C000C3010008C3010008C3010008C301000800
:1000D000C3010008190B0008C3010008000000005C
:1000E000C3010008C3010008C301000800000000AC
:1000F000000000000000000000000000C301000834
:1001000000000000C3010008C3010008C30100088B
:1001100000000000000000000000000000000000DF
:10012000C3010008C3010008C3010008C30100089F
:10013000C3010008000000000000000000000000F3
:10014000000000000000000000000000C3010008E3
:10015000C3010008C3010008C3010008C30100086F
:10016000C3010008C30100080000000000000000F7
:10017000000000000000000000000000000000007F
:1001800000000000C30100080000000000000000A3
:10019000C3010008DFF80CD000F02EF8004800473B
:1001A000510F0008700400200648804706480047A9
:1001B000FEE7FEE7FEE7FEE7FEE7FEE7FEE7FEE717
:1001C000FEE7FEE7B90900089501000830B50B46C7
:1001D000014600202022012409E021FA02F59D4277
:1001E00005D303FA02F5491B04FA02F52844151E4B
:1001F000A2F10102F1DC30BD064C074D06E0E068DB
:1002000040F0010394E8070098471034AC42F6D35D
:10021000FFF7C4FF6C0F00088C0F000800BFFEE75B
:100220007047000070B505461B4800681B49B0FBCD
:10023000F1F0441E601EB0F1807F00D30FE0601E1D
:100240004FF0E02148610F214FF0FF3000F070FACD
:1002500000204FF0E02188610720086100BF0021E5
:10026000481E00F065FA0E4805604FF0E020006976
:1002700040F001004FF0E021086100BF084800682D
:100280000028FBD14FF0E020006920F001004FF082
:10029000E021086170BD00000000002040420F0016
:1002A0002400002070B504460D462A46214602A0CF
:1002B00000F072FD70BD000025642D256420446FA0
:1002C000776E0D0A00000000F0B50A4600210023F9
:1002D000002400BF3DE0012505FA01F3156805EA99
:1002E00003049C4234D105684F000326BE40B54349
:1002F000056015794E00B5400668354305601579EF
:10030000012D02D01579022D16D185684F000326E4
:10031000BE40B543856055794E00B540866835438B
:100320008560456801268E40B543456045689679ED
:100330008E40B6B235434560C5684F000326BE40C7
:10034000B543C560D5794E00B540C6683543C56034
:10035000491C1029BFD3F0BDF0B5002300244D0780
:10036000ED0E02FA05F3CE1000F1200555F82650E7
:100370004E07F70E0F26BE40B543CF1000F1200602
:1003800046F82750CE1000F1200555F8265045EAD2
:100390000304CE1000F1200545F82640F0BD0246CA
:1003A000002013690B400BB1012000E000207047D2
:1003B0000A04826170478161704700BFFEE7000058
:1003C0002DE9F04106460F461D480078002834D03C
:1003D000002430E000252BE01A48005D0121A940EF
:1003E000084060B1012005EB4501174A02EB4101CD
:1003F0000855002012490870E1B2E8B2B04705EB99
:100400004500114901EB4000005D01280FD10D4866
:10041000005D0121A940084048B9002005EB4501D5
:10042000094A02EB41010855E1B2E8B2B8476D1C38
:10043000062DD1DB641C062CCCDBBDE8F08100006E
:10044000280000202E0000204C00002010B5264877
:100450000078B0B900240FE000F026FAE0B200F016
:1004600081F80120FFF7DEFE00F0AAF81F490855C9
:1004700001201D490870641C062CEDDB00F014FA05
:1004800031E01948007801282DD100240CE000F05B
:100490000BFAE0B200F066F80120FFF7C3FE00F0AF
:1004A0008FF813490855641C062CF0DB00F0FCF9AA
:1004B000002013E00E49095C0C4A125C91420CD1F9
:1004C0000C49095C094A125C914202D001210A4A96
:1004D00011700649095C074A1154401C0628E9DBE3
:1004E00000200149087010BD460000203A0000209D
:1004F000400000202E000020280000201CB5012113
:10050000084600F02BF901208DF804008DF8060054
:100510003F20009001208DF8070002208DF8050093
:1005200069460E48FFF7D0FE00F0BEF90121022017
:1005300000F014F900208DF8040001208DF8060069
:1005400040F23B40009001208DF8070002208DF81A
:10055000050069460248FFF7B7FE1CBD00000240D7
:100560000004024010B5044624B901211348FFF7E6
:100570001FFF21E0012C04D102211048FFF718FFD2
:100580001AE0022C04D104210C48FFF711FF13E0FC
:10059000032C04D108210948FFF70AFF0CE0042CC2
:1005A00004D110210548FFF703FF05E0052C03D116
:1005B00020210248FFF7FCFE10BD000000000240B1
:1005C00010B5002401211648FFF7E9FE08B144F0F8
:1005D000010402211248FFF7E2FE08B144F00204D0
:1005E0004FF480610E48FFF7DAFE08B144F00404CE
:1005F00008210B48FFF7D3FE08B144F0080410218E
:100600000748FFF7CCFE08B144F01004202104484D
:10061000FFF7C5FE08B144F020043F20A04310BD01
:10062000000402401FB50121022000F0A7F80020BD
:10063000ADF80C00ADF8060040F24730029040F2F1
:10064000E730ADF8040000208DF80E0001A90F4836
:1006500000F020FA012211460C4800F011FA4FF484
:10066000A06000F05BF81D208DF8000001208DF8DF
:1006700003008DF801008DF80200684600F012F8C2
:100680000121024800F0DFF91FBD00000004004016
:1006900010B5FFF733FFFFF7C5FF10BD00BFFEE742
:1006A0007047000070B5002100230F22C4781CB3EE
:1006B000174C246804F4E064C4F5E064C4F3072133
:1006C000C1F10404E3B20A4144789C40E1B2847869
:1006D000144021430C07210E0E4C05786155047817
:1006E00004F01F050124AC4005786D11AD0005F143
:1006F000E025C5F8004109E0047804F01F05012455
:10070000AC40054D0678761145F8264070BD0000D6
:100710000CED00E000E400E080E100E0024901436C
:10072000024A1160704700000000FA050CED00E07D
:1007300010B5002807DA0A07140E054A00F00F0367
:100740001B1FD45403E00A07130E024A135410BDB2
:1007500018ED00E000E400E07047000029B1064A0F
:1007600012680243044B1A6004E0034A1268824391
:10077000014B1A60704700003038024029B1064A28
:1007800012680243044B1A6004E0034A1268824371
:10079000014B1A60704700004038024029B1064AF8
:1007A00012680243044B1A6004E0034A1268824351
:1007B000014B1A607047000044380240F0B5002138
:1007C00000220024022500260223324F3F6807F052
:1007D0000C0121B1042905D0082937D105E02E4F9D
:1007E000076036E02D4F076033E02A4F3F1F3F6818
:1007F000C7F38056274F3F1F3F6807F03F036EB196
:10080000264FB7FBF3F7DFF88CC0ACF1040CDCF833
:1008100000C0CCF3881C07FB0CF40CE01E4FB7FBA8
:10082000F3F7DFF870C0ACF1040CDCF800C0CCF3D7
:10083000881C07FB0CF4174F3F1F3F68C7F30147A5
:100840007F1C7D00B4FBF5F7076002E0124F0760E4
:1008500000BF00BF0F4F3F6807F0F0010909104FBC
:100860007A5C0768D74047600A4F3F6807F4E05159
:10087000890A0B4F7A5C4768D7408760054F3F680D
:1008800007F46041490B064F7A5C4768D740C76060
:10089000F0BD0000083802400024F40040787D01DB
:1008A000140000207047000010B53F210148FFF7F9
:1008B00082FD10BD000002400CB5002001900090A8
:1008C0003348006840F480303149086000BF304848
:1008D000006800F4003000900198401C01900098DE
:1008E00018B90198B0F5A04FF1D12948006800F47B
:1008F000003010B10120009001E00020009000982D
:10090000012844D122484030006840F080502049FE
:10091000403108601F48006840F440401D490860AD
:100920001B48083000681A4908310860084600680A
:1009300008600846006840F4805008601648091FA7
:100940000860081F006840F08070091F086000BF41
:100950000F48006800F000700028F9D040F20270E3
:100960000E4908600A480830006820F00300084972
:10097000083108600846006840F00200086000BFC7
:1009800003480830006800F00C000828F8D10CBDBE
:10099000003802400070004019544107003C0240FA
:1009A0000448006820B103480068401E01490860FF
:1009B000704700002400002010B51548006840F47E
:1009C0007000134908601348006840F001001149A5
:1009D000086000200F49083108600E4800680E4981
:1009E00008400C4908600D48091D0860081F006890
:1009F00020F48020091F0860002006490C3108609F
:100A0000FFF75AFF4FF0006001498039086010BDC0
:100A100088ED00E000380240FFFFF6FE10300024B1
:100A200010B50121054800F01AF828B1FFF70EFDB6
:100A30000121024800F004F810BD0000000400404D
:100A4000CA430282704721B1028842F0010202804B
:100A500004E002884FF6FE731A400280704730B5FA
:100A60000246002000230024158A05EA0103958927
:100A700005EA010413B10CB1012000E0002030BDF3
:100A80001AB183890B43838102E083898B4383817D
:100A90007047000000220288184B98420ED0184B75
:100AA00098420BD0B0F1804F08D0164B984205D039
:100AB000154B984202D0154B984204D14FF68F73D4
:100AC0001A404B881A43124B984207D0114B984258
:100AD00004D04FF6FF431A400B891A4302804B683B
:100AE000C3620B880385054B984202D0044B9842A1
:100AF00001D18B7A03860123838270470000014075
:100B0000000401400004004000080040000C0040C8
:100B1000001000400014004010B540F22551054877
:100B200000F032F820B140F22551024800F004F8FC
:100B300010BD00000010014010B50022002340F657
:100B40006A14A14200D100BF0A1201249440A3B24A
:100B5000DC43048010BD21B1828942F400528281BD
:100B600004E082894DF6FF731A4082817047024685
:100B70000020B1F5007F00D100BF13880B400BB1FE
:100B8000012000E00020704770B5024600240023D9
:100B90000025002040F66A16B14200D100BFC1F323
:100BA000421501F01F03012606FA03F3012D02D1BD
:100BB0009689334006E0022D02D1168A334001E0C7
:100BC000968A33400C12012606FA04F41688344043
:100BD00013B10CB1012000E0002070BD2DE9FF47EA
:100BE00005460E460024A14600BFA046B08900B1CC
:100BF00000BF2C8A24F44054F08804432C82AC8932
:100C000041F20C608443B0883189084371890843FC
:100C10000443AC81AC8A24F44074B0890443AC82B0
:100C20006846FFF7CBFD2048854202D01F48854229
:100C300002D1DDF80C9001E0DDF80890A88900F4FD
:100C4000004040B109EBC90000EB091031684900D0
:100C5000B0FBF1F707E009EBC90000EB09103168C0
:100C60008900B0FBF1F76420B7FBF0F00401200924
:100C7000642101FB1078A88900F4004040B13220C3
:100C800000EBC800B0FBF1F000F00700044308E0FF
:100C9000322000EB08106421B0FBF1F000F00F00EF
:100CA00004432C81BDE8FF8700100140001401407F
:100CB000C1F308028280704770B504460D462A468B
:100CC000214602A000F068F870BD000025642D25C3
:100CD000642055700D0A000000BFFEE71CB501211D
:100CE0000846FFF73BFD072209210E48FFF734FBBA
:100CF00007220A210B48FFF72FFB02208DF8040082
:100D000000208DF806004FF4C060009000208DF8A0
:100D1000070003208DF8050069460248FFF7D4FA62
:100D20001CBD00000000024008B54FF4A060FFF7B2
:100D3000F5FC25208DF8000001208DF8030002202D
:100D40008DF801008DF802006846FFF7ABFC08BD86
:100D50001FB5FFF7C3FFFFF7E7FF01211020FFF7E3
:100D60001DFD4FF4165000900020ADF80C000C2033
:100D7000ADF80A000020ADF80800ADF80600ADF8A7
:100D8000040069460348FFF729FF01210148FFF7E6
:100D9000E2FE1FBD001001400FB4054B10B503A9C2
:100DA000044A029800F018F810BC5DF814FB00002B
:100DB0002D0F00084800002002E008C8121F08C1DB
:100DC000002AFAD170477047002001E001C1121FCC
:100DD000002AFBD1704700002DE9FF4F89B09B46E8
:100DE0000446002506E025280BD05A460B9990476B
:100DF000641C6D1C20780028F5D10DB02846BDE894
:100E0000F08F0027B8460122474900E0074314F855
:100E1000013F203B02FA03F00842F7D120782E2848
:100E200019D114F8010F47F004072A280ED06FF0EB
:100E30002F022078A0F1300109290CD808EB880195
:100E400002EB410100EB0108641CF2E70A98641C04
:100E500050F8048B0A9020780028CED0642808D05F
:100E6000692806D075281ED05A460B9990476D1CEC
:100E700058E00A994FF00A0901C90A91002802DADC
:100E800040422D2102E0390504D52B218DF8201098
:100E9000012103E0F90704D02021F7E78A4608AED4
:100EA0000DE00021FAE70A994FF00A0901C90A91F9
:100EB000F7E74946FFF78AF9303106F8011D0028A7
:100EC000F7D1ADEB060000F12009780701D44FF00F
:100ED0000108C84502DDA8EB090000E000208046BB
:100EE000002706E008A85A46C05D0B9990476D1C84
:100EF0007F1C5745F6DB04E030205A460B9990479B
:100F00006D1CB8F10001A8F10108F5DC05E016F848
:100F1000010B5A460B9990476D1CB9F10001A9F1DC
:100F20000109F4DC641C65E70928010070B504467A
:100F30000D46E1B20548FFF7BBFE00BF8021034824
:100F4000FFF715FE0028F9D0204670BD00100140C3
:100F5000FFF7FEFEFFF79CFB03E002490248FFF7A4
:100F60002FFAFAE7B90C0008A50200088C0F000858
:100F7000000000204C000000B80D0008D80F000849
:100F80004C00002024040000C80D000800BD01052D
:100F90000000000000000000010203040607080929
:100FA000000000000102030401020304060708090F
:100FB0000000000000000000000000000000000031
:100FC0000000000000000000000000000000000021
:080FD000000000000000000019
:04000005080001A945
:00000001FF
